:10000000F8FF02209901000045110000FD100000DA
:10001000FD100000FD100000FD100000FD100000AC
:10002000FD100000FD100000FD1000004511000053
:1000300045110000FD100000E1250000E52500004D
:100040004511000045110000451100004511000058
:100050004511000045110000451100004511000048
:100060004511000045110000451100004511000038
:100070004511000045110000451100004511000028
:100080004511000045110000451100004511000018
:100090004511000045110000451100004511000008
:1000A00045110000451100004511000045110000F8
:1000B00045110000451100004511000045110000E8
:1000C00045110000451100004511000045110000D8
:1000D00045110000451100004511000045110000C8
:1000E00045110000451100004511000045110000B8
:1000F00045110000451100004511000045110000A8
:10010000D1260000E5260000F92600000D2700009A
:1001100045110000A915000045110000451100001F
:100120004511000045110000451100004511000077
:100130004511000045110000451100004511000067
:100140004511000045110000451100004511000057
:100150004511000045110000451100004511000047
:100160004511000045110000451100004511000037
:100170004511000045110000451100004511000027
:100180004511000045110000451100004511000017
:100190004511000045110000584B4CF2205210B59B
:1001A0001A804DF628121A8000BF00BF00F0CEFF63
:1001B000534B4FF030621A60524A9A60524ADA60EA
:1001C000524B4FF470021A60514A136813F4807353
:1001D00004D150490B604FF4A85313604E4B1A786A
:1001E000110703D51A7842F008021A704B4B4C499C
:1001F0002A221A704B4A4C4B8B4204D252F8040FFD
:1002000043F8040BF8E7494B494900228B4202D2DC
:1002100043F8042BFAE74749474A002352F82300E2
:1002200041F823000133662BF8D1444B444A802126
:1002300003F8011B9342FBD1424B3E4A1A60424BEA
:100240008A221A70A3F5805324225A70A0221A70B1
:100250009A799207FCD59A79D406FCD43B4A9379D3
:1002600003F00C03082B394BF9D103221A714622F3
:100270005A719A799006FCD5344A9179334B4906E4
:10028000FBD5334A4FF08271116009215160202261
:100290001A709A7902F00C020C2AFAD12D4B2E4AD0
:1002A0001A602E4B2E4A1A6000225A60072243F829
:1002B000042C2C4AC3F80C2D62B601F007F8154B3C
:1002C0001B68DA0705D5284800F09AFF274B284A13
:1002D0001A60284B1B785B0609D5244C244B2268F6
:1002E0009A4204D1204800F08BFF0023236005F0E0
:1002F000B9F900F031FF02F047FBFEE70E200540A0
:1003000030800440823F04000100002B88ED00E0B3
:1003100010D0034014D0034002D0074000E0074053
:100320006C12FF1F6C650000F806FF1F7012FF1FA4
:100330007462FF1F0002FF1F0000000000E400E0E5
:1003400056E400E008ED00E00050064000400640A2
:100350004480044004800440C010050014E000E024
:10036000BFD4010000002020DD096F611CE00340C4
:10037000A5C3945A00F00740FFFFFFFFFFFFFFFFF8
:10038000FFFFFFFFFFFFFFFFFFFFFFFFFFFFFFFF7D
:10039000FFFFFFFFFFFFFFFFFFFFFFFFFFFFFFFF6D
:1003A000FFFFFFFFFFFFFFFFFFFFFFFFFFFFFFFF5D
:1003B000FFFFFFFFFFFFFFFFFFFFFFFFFFFFFFFF4D
:1003C000FFFFFFFFFFFFFFFFFFFFFFFFFFFFFFFF3D
:1003D000FFFFFFFFFFFFFFFFFFFFFFFFFFFFFFFF2D
:1003E000FFFFFFFFFFFFFFFFFFFFFFFFFFFFFFFF1D
:1003F000FFFFFFFFFFFFFFFFFFFFFFFFFFFFFFFF0D
:10040000FFFFFFFFFFFFFFFFFFFFFFFFDEF9FFFF23
:1004100010B5054C237833B9044B13B10448AFF33E
:1004200000800123237010BD7012FF1F0000000028
:1004300068650000084B10B51BB108490848AFF3C8
:1004400000800848036803B910BD074B002BFBD0A0
:10045000BDE81040184700BF000000007412FF1FE5
:10046000686500006C12FF1F0000000010B5044614
:1004700002F00CF9204610BD0B4B1B684122D86FCF
:10048000402110B500F0A4FD084A136842F20F7134
:100490008B4203DD064B01221A7010BD054C591C1E
:1004A00024F81300116010BD9012FF1FA812FF1F47
:1004B000AC12FF1FD812FF1F10B5044602F052F80D
:1004C000204610BD394A3A49F8B51368394F43F40C
:1004D0008053C02013600024087040F608063C805A
:1004E0000120083400F0A4FEA3B2B3421CB2314D87
:1004F000F5D1314C314F2046012101F0CFFF304B77
:1005000022791A7023682F4A1A600120D871DA887C
:10051000DF6002269E8021799E6022F4E06222F054
:10052000070201F1804142F4807201F50431024377
:10053000DA80002698714FF49672B020DA839E61BB
:10054000DA829E821D610E701F4B087021791F4850
:10055000197001681E4C1F4B1F4F41F48001016050
:1005600024684FF4FA7002FB04F293FBF2F400F0FB
:100570005FFE214633460A22184802F0E1F8174888
:1005800002F0CEF8A5F51525631E154A1549164843
:100590009BB2A5F6F4753B6048F6A37440F20113D4
:1005A0002E60146010600B60F8BD00BF2C8004400A
:1005B00021C00C4000C00C40B012FF1FA8FDFFFF7F
:1005C0001A8000400007FF1F1B8000403C80044051
:1005D0005809FF1F00879303046003407409FF1F3D
:1005E0000060034010600340A28F010038B5022173
:1005F000172000F017FE174C0021402000F012FEDB
:100600000021412000F00EFEFFF75CFF2368D86F49
:10061000036B5B0103F1844301255D610D2100F053
:10062000A3FB23680021D86F00F00AFB2368042194
:10063000D86F00F049FA23682946D86F00F0E4FB30
:1006400023684122D3F88000402100F0A1FC024B36
:10065000187038BD9012FF1F8C12FF1F154B9FEDB5
:10066000167AD3ED007AF8EEE77A70B5C7EE276A0E
:1006700082B0124E0024002516EE900A04F09AFC77
:1006800041EC100B02F0B0FB002053EC102B0C4996
:100690008DED000B04F02EFB9DED000B094BC6E920
:1006A0000001C6E90245C3E9004583ED020B02B033
:1006B00070BD00BFFC06FF1FDB0FC9C0B812FF1FD3
:1006C0000000F03FC812FF1F2DE9F04F2DED048B05
:1006D00095B0814B0793002306938049804C049486
:1006E0007BA3D3E90023D1E9000104F0B7FC7D4BE3
:1006F000DFF800B2CDE90801186804F049FC0CAB42
:100700000393CDE90A0110AB002600270293DDF820
:1007100018A0079B0593B046B946504604F038FC34
:10072000DDE9082304F09AFCDDE90A2304F0C0FDAA
:1007300041EC100B41EC180B02F0F2FAB0EE409ACB
:10074000F0EE609AB0EE480AF0EE680A02F088FA1D
:10075000FBE80245059B33F9020905938DED000B7B
:1007600004F016FC22462B4604F078FC9DED000BAD
:1007700004460D4602460B4651EC100B04F06EFC8D
:1007800042464B4604F0B8FA049BB3EC027B894620
:1007900003990493F1E802238046039151EC170B6F
:1007A0008DED007B04F05AFC42464B4604F0A4FA5F
:1007B00022462B468046894651EC190B04F04EFC2C
:1007C00032463B4604F098FA0D460299F1E80223BE
:1007D00004460291DDE9000104F040FC2B4622466C
:1007E00004F08AFA404B5B450AF1FF3A06460F4691
:1007F00093D142464B4640464946CDE90E89CDE964
:10080000126704F02BFC324604460D463B46304648
:10081000394604F023FC02460B462046294604F0E4
:100820006BFA41EC100B02F063FB49EC118BB0EE5C
:10083000409AF0EE609A47EC106B02F0D1FA079BF9
:100840002A4833F9021B0793B0EE408AF0EE608A23
:1008500001F0B6FF0221264801F01CFD49EC108B87
:100860000221224801F0B4FF0221214801F012FDCB
:1008700047EC106B02211D4801F0AAFF02211C4821
:1008800001F008FDB0EE490AF0EE690A02211748AE
:1008900001F09EFF0221164801F0FCFCB0EE480A70
:1008A000F0EE680A069B1148013302211C460693AC
:1008B00001F08EFF0D4801F033FF42F210729442B6
:1008C0007FF40BAF15B0BDEC048BBDE8F08F00BF1B
:1008D00000000060FB211940D812FF1F9812FF1F73
:1008E000C812FF1FFC06FF1FC812FF1F7409FF1F5D
:1008F000B85F0000B812FF1F38B50F480F4B00213A
:1009000023F8021F83424FF00004F9D10C4D0D4B28
:100910000D490E482C7041F26F721C6001F06CFEA4
:100920002B78002BFCD0094801F0B0FEFFF796FEB3
:10093000BDE83840FFF7C8BEF660FF1FD612FF1FA4
:10094000AC12FF1FA812FF1F79040000A012FF1FA6
:1009500008B542F2107000F06BFC0E21044801F063
:1009600099FC044801F0DCFEBDE80840FFF7C4BF75
:10097000BC5F00007409FF1FF8B5134B134E1868D5
:10098000134D144C04F004FBC6E900018C2002F066
:1009900003F8064600F028F80F4B104A104916607D
:1009A00018462A46002680271F711E6004F098F919
:1009B0003146204601F072FD2A4620460949BDE82D
:1009C000F84004F08DB900BF5809FF1F9812FF1FAF
:1009D000F806FF1FB012FF1FA012FF1F9012FF1F8B
:1009E0006D040000B904000030B583B00F4B0093D4
:1009F00004460F4B0F4A002100F0AAFA04F13C050F
:100A00000D4B009328460D4B0D4A012100F0A0FA32
:100A100002232046C4F88050C4F88850E467C4F824
:100A2000844084F8783003B030BD00BF00B003408C
:100A300060600000D05F000000B00B40CC5F0000A1
:100A400018600000C36A1A788A4201D000207047FB
:100A5000587800F01F001F3818BF0120704700BFF2
:100A600090F821308B421FD0012970B41DD059B9A4
:100A7000124A134B11701970036B80F821105B013F
:100A800003F18443C3F8001472B6036B5B0103F1F6
:100A90008443012200214276C3F89C14C3F89824B1
:100AA000C3F89C2462B670BC7047064D034A044BE1
:100AB0006026E1242E701470DDE700BF014007407E
:100AC0004000FA420040074090F822308B42F0B4D8
:100AD00030D0092900F2AE80DFE801F005052E3E96
:100AE0004F5F6F84919E036B5A0102F1844213465B
:100AF00003F5807302F5C072012400269660254636
:100B00002646DC6127460024D4601D605C605F617E
:100B10009E6180F8221072B6036B5B0103F184437F
:100B2000012200214276C3F89C14C3F89824C3F82C
:100B30009C2462B6F0BC7047036B5A0102F18442F8
:100B4000134603F5807302F5C072002401269460F9
:100B50002546DC613746D6E7036B5A0102F1844231
:100B60001346012502F5C07203F580732E4600245A
:100B7000956037462546DC61C5E7036B5A0102F1F3
:100B80008442134603F5807302F5C07200240126E7
:100B900096602546DC612746B5E7036B5A0102F1F2
:100BA0008442134603F5807302F5C07200240127C6
:100BB00097602546DC612646A5E7036B5A0102F1E2
:100BC0008442134603F5807302F5C07200250124A8
:100BD0009560DC6101240025D4605C601C609D612F
:100BE0005D6196E7036B5A0102F18442134603F5F7
:100BF000807302F5C07201249460DC61EAE7036B44
:100C00005A0102F18442134603F5807302F5C07263
:100C100000249460DC61DDE7036B5A0102F1844239
:100C2000134603F5807302F5C07201250024956018
:100C3000DC61CFE7C38A9BB243F00103C38279E74B
:100C400038B5437E04460D46EBB9236B012D4FEAC0
:100C5000431303F184431FD903F590630121042D4D
:100C6000996009D9082D24D9102D1BD9202259604B
:100C7000196084F8202038BD0021042259601960D1
:100C800084F8202038BD00F01BF8236B012D4FEABB
:100C9000431303F18443DFD80022C3F8882484F887
:100CA000202038BD00221A601022596084F82020CC
:100CB00038BD002008221960586084F8202038BD13
:100CC000F8B5036B5B0103F1844303F59063DA69C4
:100CD000044652B101F076FE236B5B0103F18443BD
:100CE00003F59063DA69002AF4D19B6923B1E38AA2
:100CF0009BB243F00203E38272B6637E03B3236BBD
:100D00009F6BDA6B1E6C5D6C986CD96C3A44324404
:100D10002A4402440A44C2F34E0242F40042DA6218
:100D20009F6DDA6D1E6E5D6E986ED96E3A443244D8
:100D30002A4402440A44C2F34E0242F400421A63B7
:100D400062B6A37E0025657663B102212046FFF7D7
:100D5000BBFE0221204600F057F804212046FFF791
:100D60006FFFA576F8BD00BF38B5C37E8B4213D0A8
:100D7000437E04460D469BBB092D0ED8236B5B01B9
:100D800003F1844300210822C3F80C11FF20C3F8AB
:100D90000811E276E06138BD38BD0B2D23D90D2D49
:100DA0000FD8236B5B0103F184430122C3F80821B0
:100DB00000200C22C3F80C0140F6FF71E276E161DD
:100DC00038BD236B5B0103F1844301211022C3F87A
:100DD0000C114FF6FF70C3F80811E276E06138BDE0
:100DE000FFF76EFFC8E7236B5B0103F1844300222A
:100DF000C3F8082101200A22C3F80C0140F2FF3198
:100E0000E276E16138BD00BF38B5437E05460C4649
:100E100083B9042C0BD8DFE804F0101F2E3D03002B
:100E20002B6B5B0103F184430022C3F8102185F88A
:100E3000234038BDFFF744FFEBE72B6B5A0102F16B
:100E4000844200210120C2F81001C2F88411C2F8C6
:100E5000801185F8234038BD2B6B5A0102F1844282
:100E600001210020C2F81011C2F88011C2F88401DB
:100E700085F8234038BD2B6B5A0102F184420121D1
:100E80000020C2F81011C2F88001C2F8841185F860
:100E9000234038BD2B6B5A0102F184420121C2F874
:100EA0001011C2F88411C2F8801185F8234038BDB2
:100EB00070B5037E0446002B40D0234A136843F0EC
:100EC00000631360236B5B0103F18443002504225C
:100ED0000126022184F8222084F8232084F821109E
:100EE000E576E56184F8205084F828506576E5823F
:100EF00065752946C3F890612046FFF7B1FD20468D
:100F00000A21FFF731FF2046A6762021FFF798FE41
:100F100031462046FFF7D8FD31462046FFF774FFE3
:100F200072B6236B66765B0103F18443C3F89C546D
:100F3000C3F89864C3F89C6462B670BD034A136832
:100F400043F000631360BDE7308004403C80044000
:100F500010B5044602986262E3622176206349B9C3
:100F6000094B63632723204684F83830FFF7A0FF3E
:100F7000204610BD054B63634923204684F8383072
:100F8000FFF796FF204610BD106003403860034015
:100F9000452905D8426A535C5B0601D5FFF752BD6F
:100FA00000207047C36A1A788A420ABF5B781F2202
:100FB00003F01F0272B6016B4B0103F184439B697E
:100FC000002B14BF6023202313440B6062B67047CC
:100FD0002DE9F04F452983B083460AD9BBF8163076
:100FE00045489BB243F00403ABF8163003B0BDE8AC
:100FF000F08F446A645C6406F0D501920091FFF7BB
:1010000021FD009B019A0028E8D09BF815109BF861
:10101000190001318BF81510002863D1DBF830007E
:101020009BF81BA0410101F18441D1F81C4400341C
:1010300018BF0124002C4FD072B6DBF830100D68B9
:10104000D1F80890D1F80C800F6A4E6A62B6DBF8CE
:101050003000400100F184404FF0000EC0F88CE4F5
:1010600019465846FFF79EFF01E001F0ABFCDBF8A4
:1010700030305B0103F1844303F58063DB69002BAF
:10108000F3D172B6DBF83020530103F18443DB69FE
:10109000CBB11069BAF1100F00B22BD062B654B1C7
:1010A00072B6DBF83030C3F80890C3F80C801F62CA
:1010B0005E621D6062B69BF81530013B8BF81530FF
:1010C00003B0BDE8F08FBBF816300B489BB243F07D
:1010D0008003ABF81630E1E7A046A1462646274636
:1010E0002546B6E7584601920093FFF7E9FD019ABD
:1010F000009B93E74000D1E790EEFEFF08B5104C4F
:1011000008E0236859050DD423681A050FD4236815
:10111000DB0411D423685803F3D500F045FA2368A3
:101120005905F1D500F00EF823681A05EFD500F047
:1011300009F82368DB04EDD500F004F8EAE700BF06
:101140003480044008B5FFF7D9FF00BF014B1022DF
:101150001A80704700200540704700BF094908B554
:101160000B6830B16A461844A2F50052904202D290
:101170000860184608BD04F06FFA0C2303604FF0B6
:10118000FF3008BD5C09FF1F1C4A02EBC0030129A8
:101190005B6811D004291BD052F83000002280F87F
:1011A000802229B1022920D0032922D01A60704759
:1011B0004FF480721A60704752F830004FF4A272F8
:1011C00080F880121A601A6822F020021A607047B4
:1011D00052F830104FF4A272012081F880021A6098
:1011E0001A6842F020021A60704740F203121A6037
:1011F00070474FF481721A60704700BF646000004E
:1012000030B4054B054D064C002210211A602A60AF
:101210002060196030BC704714D0034004D00340F4
:1012200000D003403F2801D8FFF7AEBF704700BF92
:101230002DE9F843054672B6204F214B214A1B6821
:101240003C68126862B6520102D5322B88BF013465
:1012500095B3C3F5EA331C4EDFF86490DFF8648081
:10126000BF334FF47A72A6FB031302FB04F404EBC2
:10127000931472B6D9F800103A68D8F800E062B654
:10128000C1F5EA33BF33A6FB03031EF0806FC4EB46
:1012900093134FF47A7002D0322988BF013200FBD9
:1012A0000233B3F57A7F04D3013D05D004F57A7497
:1012B000DFE701F087FBDCE7BDE8F883F860FF1F9C
:1012C00018E000E004ED00E089888888F8B53E4B1E
:1012D0003E49DFF818C13E4E3E4ADFF814E13E4D6C
:1012E0003E4C3F4F4FF0006018604FF08050186048
:1012F0004FF0005018604FF0804018604FF00040F1
:1013000018600020086028234EF6FF71CCF800100A
:10131000CEF8003033600EF5012E13602B60236091
:1013200005F500253B6004F50024B36207F50027AE
:10133000936206F5012602F501220EF1100E05F664
:10134000E87504F6E87407F57F67103220362B60E5
:101350002360CEF800303B6013603360214EBB61E8
:10136000936109223260A7F5002706F58056203FD9
:10137000083638603160BB60F36047F8042C06F52E
:10138000FD2607F5FE2706F2FC760437306039604B
:10139000B360FB6046F8042C0836C7F8FC0F06F66D
:1013A000FC76114831602B602360026001F080FB05
:1013B0001920FFF73DFF00F05DFE40F21310BDE87D
:1013C000F840FFF735BF00BF04E100E004800340B0
:1013D000148003401C800340248003402C80034081
:1013E000348003400080034000900B40088003409D
:1013F0000C800340431E032B14D872B60A4951F8DF
:10140000230068B170B4094C058834F8132046688D
:1014100041F82360521B24F8132062B670BC704759
:1014200062B67047002070475461FF1F5C62FF1F67
:10143000013803280BD872B6074B53F8203043B15C
:1014400000205B680130002BFBD162B670470020A2
:1014500070471846F9E700BFA861FF1F30B472B6A5
:101460002B4A13781D0706D52A4B196A002936D056
:10147000996A002941D053781C0706D5254B196C71
:1014800000293ED0996C002939D09378190705D5E9
:10149000204B196E002936D0996E89B1D3781B077D
:1014A00007D51C4BD3F880207AB3D3F888201121BC
:1014B0003AB162B6184B00221A7030BC00F05EBE22
:1014C0000D21154C154D227843F8315003EBC10323
:1014D0000830013A5860227062B630BC704704226E
:1014E0000D4C0F4D217843F8325003EBC203083006
:1014F0004A1E5860227062B6EFE70521E1E7092134
:10150000DFE70822ECE70C22EAE71022E8E700BF59
:101510009C6200000000FF1FD161FF1FC800400057
:1015200088004000431E032B1DD81B4A400140F099
:10153000100030B4104472B6184CE25C032A1BD879
:10154000DFE802F00212151703220D88E25410F0B2
:10155000080F14BFC823882343EA054308310360FA
:10156000416062B630BC704708300222EDE70522C8
:10157000EBE708300422E8E7094A52F8230038B1C3
:10158000084A52F82300416042F8231062B6E9E7A6
:1015900042F82310034AF7E70000FF1FE061FF1F36
:1015A000A861FF1FB861FF1F2DE9F04FDFF818B3E6
:1015B000DFF818A387B044E0AE4F4FEA930807EB7B
:1015C000C809013ED9F8042003F00803F6B2A2F1DD
:1015D000080003F0FF04002B40F0048157F8383076
:1015E0001B0C99B222F8081C002B00F0F280A24BD1
:1015F00022F8064C42F8044C53F82620002A00F04A
:101600006E819E4D55F8263058609D4C45F8260059
:1016100034F81630194424F8161000F08FFD002815
:1016200000F05681974A984B19F0080F00F1080016
:1016300018BF1346C9F8040047F8383008238BF860
:1016400000309BF80040E4B261071BD58F4B1B783C
:10165000ABB18F490A7802F0FF032AB1013BDBB23C
:101660000B70002B00F0EF848A490A7802F0FF0328
:101670002AB1013BDBB20B70002B00F0F780042392
:101680008BF8003004F0080303F0FF02002B00F099
:10169000D6809AF80030DBB21E098DD19C08DFF8A5
:1016A000D49159F8342009EBC401C2F38302013A02
:1016B00049680C2A7ED8DFE802F081817D7D7D7D3E
:1016C0007D7D477D7D7D07000868734D4A68734FB7
:1016D000734E286081B240F281606A4B6A604FF0BD
:1016E000010E0022814249F834303A60C9F81020D6
:1016F000C9F8182086F800E05E4C00F2F480B1F5DD
:10170000D06F80F07883B1F5817F00F0628300F2C2
:101710008782802900F0EC82822940F01E83A9880C
:1017200001F07F01042900F218835E485E4C8900B5
:101730000844227062700278930740F1798384F83C
:1017400000E04FF0020ED8E2544F3A6842B3574BD4
:10175000534E5749188834780D784028864645F00E
:10176000020828BF4FF0400E002C84F001043470B2
:10177000CEEB00000CBF8824C82409EBC80680B259
:1017800085F0010544EA0E447260188049F838403B
:1017900072440D7018B9BEF1400F18BF00223A60B4
:1017A0003D4B1A88B2F5A06F04D100219A78597088
:1017B000404B1A70404A012313703FE7364A1588A0
:1017C00042F22100854200F0FF812E4A49F8342080
:1017D000F0E72C4A2C4B19F0080F18BF134647F8B6
:1017E00038302BE700F0CAFC344A354952F826302D
:1017F000002B00F0B68158688C5D42F8260003F19A
:101800000802C9F80420032C05D8DFE804F0120F01
:10181000150204228A551A8819F0080F0CBF882374
:10182000C82343EA024347F8383007E702228A55C3
:10183000F1E703228A55EEE705228A55EBE7E00738
:1018400000F11A82210600F14982A20706D51D4A3D
:101850001D4913780220DBB213700870E30602D52D
:10186000194B10221A7007B0BDE8F08F00F0F2FD9E
:1018700005E700BF0000FF1F5461FF1F0061FF1F4D
:101880005C62FF1FC800400088004000DC61FF1F51
:101890006561FF1FE461FF1FC861FF1FFC60FF1F40
:1018A0006461FF1FC0200740D461FF1F1061FF1F4C
:1018B000D061FF1F9820074094200740A861FF1FB8
:1018C000E061FF1F882007408020074090200740EC
:1018D000AB4A47F83800137801331370AEE643F88B
:1018E0002600A84D91E642F22100814200F03581A8
:1018F00000F2AF81B1F5086F00F01B82B1F5106FF7
:1019000040F02B82226AA049A8780870120600F1E4
:101910004583D9F828209D49130600F13A83D9F868
:1019200030209A49150600F12F83D9F838209749BD
:10193000140600F12483D9F840209449100600F1E0
:101940001983D9F848209149120600F10E83D9F87D
:1019500050208E49130600F10383D9F858208B4993
:10196000150600F1F882D9F860208849140600F1C4
:101970002983D9F868208549100600F11E83D9F81B
:1019800070208249120600F11383D9F878207F492C
:10199000130600F10883D9F880207C49150600F170
:1019A0001C83D9F888207949140600F11083D9F8EE
:1019B00090207649100600F1C882D9F89820734922
:1019C000120600F1BC827248724A73490190734852
:1019D0006C4D734C0497002305960295804617467C
:1019E0000E461D460394386828B1446800F0C6FBD3
:1019F0002046002CF9D100233B60029B30681A4638
:101A0000002342F8253028B1446800F0B7FB204697
:101A1000002CF9D100223260019A98F8003011466A
:101A2000002241F8042B039A0191023B4FF0000180
:101A300022F81510032B09D8DFE813F04B0104003E
:101A40004B0104004FF0010388F800300135042DEC
:101A500007F1040706F1040608F10108C3D1514C4F
:101A6000514B2278464D049F059E002129701A7023
:101A7000130700F14F8262784C49DFF810810A7039
:101A800010074FF00001C9F83010C9F8381000F104
:101A90002B824749A2780A700021C9F85010C9F872
:101AA00058101107DFF8E48000F1DC81E278414949
:101AB000364C0A7000211207C9F87010C9F8781066
:101AC00000F1B98133780193002183F00102C9F854
:101AD0009010C9F898100020029080468446044671
:101AE00035490D7845F0020E09EBCE030393019BB7
:101AF000002B039B5C600CBF8824C82444EA0803C5
:101B000085F0010449F83E3032700C70DFF87CE05B
:101B10002A4BDFF8A480002840F02681BCF1400F5A
:101B20001BD144F0020C09EBCC03029CDFF85CE013
:101B30005C60002A40F02E81020442F088029DF889
:101B400004304EF83C20044433700D702346402886
:101B500003D100201A4A3B6010801A4A01231370F7
:101B600028E68B5D032B00F22D8101A252F823F0B1
:101B70003D1600003D160000C71C0000CD1C0000F3
:101B8000D161FF1F0061FF1FDC61FF1F0000FF1F0D
:101B9000B861FF1F5461FF1FA861FF1FE061FF1FB5
:101BA0005C62FF1F9C620000C4200740C820074001
:101BB000CC200740D0200740D061FF1F6461FF1F89
:101BC0001061FF1F94200740928892B9B14A0D78A6
:101BD0004878157050708D78C8789570D0701068FE
:101BE0000D79157186284D7989795571917100F0BB
:101BF000A580A949A94E0A78307882F0010500280D
:101C000042F002020D700CBF8821C82149F8321041
:101C100009EBC20280F00100002130705160D4E570
:101C200040F20232914240F08D80A98801F07F019C
:101C3000042900F292806A88002A40F08E80984839
:101C4000CDF804E089000844017841F002010170F8
:101C500041E742F2212081427BD1A988002940F04E
:101C6000E480904B904A9148AC781D681560CDF89F
:101C700004E00A4604702EE78D4B8E4886491A61AF
:101C80004FF0020E80F800E0854F0A708A49196013
:101C900099608A4E8A4D8B4C9A610D213970FF21D3
:101CA0003170DFF840E229702270874D874A8EF844
:101CB00000109F27012406F8047C5D600470DA6040
:101CC00007B0BDE8F08F00238B55B7E401238B5597
:101CD000B4E44FF0000388F80030B7E67049784B61
:101CE00080220D2008701A70A2077FF5B7ADAEE50F
:101CF000774C4FF0020E22706270EA88724580F0D5
:101D0000A38165490D78402A944645F0020E28BF0C
:101D10004FF0400C04EB0C0309EBCE0002930123BF
:101D200044604FEA0C48CCEB020001930022C82427
:101D3000E4E6684A664C12782270DEE7664A0F21B4
:101D4000117056E7B1F5A06F07D10123002201936E
:101D5000C1E642F221329142F7D0514A0F2313706B
:101D6000544A0123137025E540287FF6DAAE44F08B
:101D700002040EEBC401029E4E60BAB19DF804103D
:101D8000564A19703346403888F8005040334EF8B0
:101D90003420DFE69DF8043033700204029B0D709E
:101DA00042F0C80203444EF83C20D0E69DF80410EF
:101DB0001970029B404A88F80050403840334EF872
:101DC0003420C7E619F0080F0CBF022303238B55FC
:101DD00034E4A98801F07F010429BED86A88002A6A
:101DE000BBD12F48CDF804E089000844017821F0E8
:101DF000020101706FE63A4A5468002CADD0688841
:101E0000B5F804E003E00C325468002CA5D0138828
:101E10008342F8D153887345F5D1000A03280CBFDB
:101E200094F800E0B2F808E067E7CDF804E052E685
:101E30004FF0020E61E700F081F9002800F0F18018
:101E400008301D4AC4F88400C4F8802000F076F9F8
:101E5000002800F0E0800830204AC9F88C00C9F85A
:101E600088202FE600F06AF9002800F0E6800830AC
:101E7000114AC8F86400C8F8602000F05FF9002833
:101E800000F0D5800830154AC9F86C00C9F8682000
:101E90000CE600BF6462FF1FD061FF1F6461FF1F7B
:101EA000C0200740F860FF1F6C62FF1FF461FF1F36
:101EB0000000FF1F94200740880040008820074052
:101EC00080200740982007401461FF1F6861FF1FB2
:101ED000D461FF1FDC61FF1F6561FF1FC800400068
:101EE000A06200008C20074000F028F9002800F0D4
:101EF0008C8008305D4AC8F84400C8F8402000F0E3
:101F00001DF900287BD00830594AC9F84C00C9F89F
:101F10004820BEE500F012F900286AD00830534A84
:101F2000C9F82400C9F8202000F008F900285AD088
:101F300008304F4AC9F82C00C9F828209BE5D1F891
:101F40009C00083800F01AF93DE5D1F894000838F3
:101F500000F014F931E5C86D083800F00FF902E51A
:101F6000486D083800F00AF9F7E4C86C083800F04A
:101F700005F9ECE4486C083800F000F9E1E4C86BBE
:101F8000083800F0FBF8D6E4486B083800F0F6F8A3
:101F9000CBE4C86A083800F0F1F8C0E4606A083899
:101FA00000F0ECF8B5E4C86F083800F0E7F8F2E4A8
:101FB000486F083800F0E2F8E7E4C86E083800F02F
:101FC000DDF8DCE4486E083800F0D8F8D1E4D1F848
:101FD0008C00083800F0D2F8E9E4D1F88400083821
:101FE00000F0CCF8DDE42A78C9F8280001322A7024
:101FF00041E52A78C9F8200001322A7094E72A784E
:10200000C9F8480001322A7043E52A78C8F8400030
:1020100001322A7073E72A78C9F8880001322A70E1
:1020200050E52A78C4F8800001322A700EE72A7839
:10203000C9F8680001322A7038E52A78C8F86000CB
:1020400001322A7019E700BEBEF1400FF44628BFE6
:102050004FF0400C04EB0C0302930123CCEB0E0079
:102060004FEA0C48002201933AE500BF8800400087
:10207000C80040002DE9F843244C00F0AFFD0022D9
:1020800004F1A00023461A605A60083383424FF0DF
:102090000001F8D11E481F4A0368DFF890E01E4F88
:1020A0001E4D1F4EDFF88880DFF888C0DFF888906B
:1020B00043F48023036013681A4843F040731360AD
:1020C000C4F307238EF80030C4F307433B70240E9B
:1020D000FF2302F5C9222C7002F5847288F80030C3
:1020E000114D8CF800303370012389F800307026D0
:1020F0008EF864104FF40014102107F82C3C2E7059
:10210000046011700EF1640EBDE8F8830000FF1F3B
:102110003480044000D80040B0200740B42007407D
:102120001020074004E100E035E400E09C20074077
:1021300080200740882007409420074072B60D4851
:102140000268B2FA82F30B2B10DC4FF00041D94049
:1021500022EA0102026062B6074803EBC303DB0018
:10216000C2180021C15010465160704762B600206D
:10217000704700BF6009FF1F9803FF1F0D4B0E4AF9
:10218000C31AA2FB03231B090B2B0CD80B4A127892
:1021900052B972B60A484FF00041026821FA03F3BF
:1021A0001A43026062B67047064A1278002AF0D0DD
:1021B000FFF754B99803FF1F398EE338D161FF1F31
:1021C0006009FF1FDC61FF1F38B50F4D286878B12B
:1021D00043880288C118013393420C7A02D24380AB
:1021E000204638BDFFF7CAFF002320462B6038BDCC
:1021F000064B1B782BB10320FFF7FCF82860002862
:10220000E6D14FF0FF3038BDF061FF1FDC61FF1FEA
:1022100010B5094C206818B143881844007A10BDE5
:10222000064B1B782BB10320FFF7E4F82060002851
:10223000F2D14FF0FF3010BDF061FF1FDC61FF1FD6
:10224000044B054A1B6890881BB11A885B88D31A17
:1022500018447047F061FF1F5C62FF1F0B4B1B7837
:102260009BB110B50A4C206848B1FFF787FF0023E7
:1022700003202360FFF7BEF830B1FFF77FFF032094
:10228000FFF7B8F80028F8D110BD7047DC61FF1FD8
:10229000F061FF1F2DE9F04FDFF8F89083B00122C5
:1022A00089F80020019169B3DFF8EC80364F019E78
:1022B0008346D8F80000B0B3344D4488C4F14001DF
:1022C000B14228BF314604EB010E00221FFA8EFEF8
:1022D0002A70761AA0F802E000F1080251B1013C20
:1022E000224459441BF8014B02F8014F8B45F9D1A8
:1022F000B0F802E0BEF13F0F0BD8254A052111705E
:10230000002ED6D10198002389F8003003B0BDE833
:10231000F08F4022028001460420FFF703F90022DB
:10232000C8F80020E9E73A782AB3184D4DF2E904DD
:102330004FF0010A07E0013C16D02A78A2B900F05C
:1023400041FB3A78BAB10420FFF772F80728F2D8B7
:1023500089F800A0FFF7F2FEC8F800000028ACD111
:102360000C4B013C1870E8D101234FF0FF302B706B
:1023700003B0BDE8F08F00234FF0FF3089F8003044
:1023800003B0BDE8F08F00BFDC61FF1FEC61FF1FF1
:10239000E461FF1FE561FF1FE861FF1F00B583B027
:1023A00002AB012103F8010D1846FFF773FF03B0DC
:1023B0005DF804FB38B50E4D0E4C286801232370E0
:1023C00028B1408800232370C0F1400038BD0A4B7B
:1023D0001B7813B90020207038BD0420FFF728F8BF
:1023E0000728F7D8FFF7AAFE28600028E9D1F1E70F
:1023F000E861FF1FE561FF1FDC61FF1FF8B5114BAE
:102400001B788BB1104E114D346801272F7064B1C9
:102410000F4A638800271770214623800420FFF7A6
:1024200081F8376000232B70F8BDFFF787FE084B5B
:1024300028B1014604201C70FFF774F8F2E71F7002
:10244000F0E700BFDC61FF1FE861FF1FE561FF1FD0
:10245000E461FF1F38B50E4B1B7873B90D4C216832
:1024600061B103F0FF054B880B800420FFF75AF899
:10247000256038BD084B01221A7038BDFFF75EFE9B
:102480000028F7D00146BDE838400420FFF74AB8DD
:10249000E561FF1FE861FF1FE461FF1FF0B572B641
:1024A00099B902688AB103790F2B0ED8274C21887D
:1024B00041FA03F5ED070AD503F1007303F59063C4
:1024C000B2EB431F03D162B6F0BD204C218800233C
:1024D00041FA03F212F0010207D00133102BF7D1B9
:1024E00062B6002203710260F0BD01259D402943C0
:1024F000218062B6164E174D174FDFF864E0D9B24F
:102500000171346844F0020434602C6844F0020421
:102510002C60A6F580268224A5F5802503F10073A2
:102520003C6003F59063223E243D0C4C8EF8001075
:102530005B0131702970217003601A605A609A60E3
:10254000DA601A615A619A61DA61F0BDF661FF1FC3
:10255000408004403C800440008000401F800040D8
:102560001A80004003790F2B12D80A4A10B4137056
:1025700072B6094904790A880123A34022EA0303B9
:102580000B8062B6102200235DF8044B02710360D9
:10259000704700BF1A800040F661FF1F70B5EFF36F
:1025A000108272B60C4C206880B10C4E0025436935
:1025B000236073B19D6102B962B64577836898471D
:1025C000EFF3108272B620680028F0D102B962B62B
:1025D00070BD3360EFE700BFF861FF1FFC61FF1FB4
:1025E000FFF7DCBF024A136801331360704700BF76
:1025F000F860FF1F704700BF0368F0B4FBB100250F
:1026000001249D60DC601B4C1A601C44241104F101
:1026100030056A11032692009E60174F0679174B0A
:1026200047F8241002F1604202F5614205F01F05EF
:10263000012000FA05F5E6541560F0BC7047104C17
:10264000236843F40003236000BF0E4B0E4DA4F536
:102650008734A4F59E7401261E60234604609C689E
:10266000002CD0D01033AB420360F8D100230360BC
:102670001846E2E7008FFCBF6409FF1F30E400E06A
:102680003C80044000700340407103400168A9B1E0
:102690000B4BF0B40B441B110A4E0B4F0B4D46F87D
:1026A000237003F1300202F01F0401235211A340F2
:1026B000002445F822308C600460F0BC704700BFF5
:1026C000008FFCBF6409FF1FF525000080E100E0DA
:1026D000024A034B012111601B6818470C7103402B
:1026E0006409FF1F024A034B012111605B68184710
:1026F0001C7103406409FF1F024A034B0121116052
:102700009B6818472C7103406409FF1F024A034B62
:1027100001211160DB6818473C7103406409FF1F09
:1027200000B5064A036812885B6883B001A9ADF85A
:1027300004200222984703B05DF804FB64620000A5
:10274000F0B507468BB0002A33D0012A08BF0A2211
:1027500051B3212400E0F4B2B1FBF2F502FB1511F4
:10276000C8B2092900F1300198BFC8B20AA988BFD0
:102770003730214488BFC0B201F8240C661E2946B8
:10278000002DE8D133B1013CE4B20AAB23442D2241
:1027900003F8242C3B6801AA11195B683846C4F180
:1027A000220298470BB0F0BD30228DF8252021245D
:1027B000E8E70368C9B21B6898470BB0F0BD00BFDB
:1027C0000029BABF49422D2300230A22FFF7B8BFD0
:1027D0002DE9F04357EC106B85B005460C4610EE22
:1027E000102A3B4610EE100A394602F0D1FE0028AE
:1027F00040F0B28027F00049304649464FF0FF32A2
:10280000594B02F0C5FE90B9304649464FF0FF32B1
:10281000554B02F09FFE50B92B6854495B6828461F
:10282000032298478046404605B0BDE8F0834FF04C
:1028300060424F4B3046394602F0A0FE002872D16C
:102840004FF060424B4B3046394602F079FE00288B
:1028500069D1002200233046394602F071FE00287B
:1028600064D18146002C67D0434900204FF0000816
:102870003BA3D3E9002308F1010802F0EFFB5FFA64
:1028800088F39C42F4D802460B463046394602F0A3
:1028900033FA0F46064602F0B9FE804602F068FBA6
:1028A00002460B463046394602F024FA4B460646AD
:1028B0000F460A2241462846FFF742FF0F2C28BF49
:1028C0000F2404F101092E2380465FFA89F98DF85F
:1028D000003001240022294B3046394602F0BEFB6D
:1028E0000F46064602F092FE04AB2344C0B200F14C
:1028F000300203F8102C02F04BFB02460B46304628
:10290000394602F0F7F90134E4B24C4506460F4669
:10291000E0D12B6822465B682846694698474046C6
:1029200005B0BDE8F0832B68154977E707F1004350
:102930001F464FF0010995E700220F4B30463946FC
:1029400002F0DAF902F062FE4B4601460A222846FE
:10295000FFF7F6FE804666E72B680A495EE700BF90
:10296000000000A09999B93FFFFFEF7F706200005F
:10297000FFFFEF41FFFFEFC10000E03F00002440F8
:102980006C6200006862000008B5FDF72FFEFDF7DD
:10299000DFFF00F017F8FAE702F08CBEFFF75EBC2D
:1029A000FFF736BCFFF710BCFFF74ABCFFF726BDA8
:1029B000FFF700BD08461146FFF76CBC0846FFF75D
:1029C000EDBC00BF2DE9F843314E337893B1314F60
:1029D0003A787AB90122D9073A7036D49A0719D4CD
:1029E00000225B073A7005D52B4B1A6812B1EFF342
:1029F00005820AB1BDE8F883EFF3108172B618685A
:102A000018B1264C2278002A2ED00029F2D162B6C5
:102A1000BDE8F883DFF8908098F80020002ADFD026
:102A2000DFF88890002405E0013498F80030E4B223
:102A3000A34212D959F824502B6828461B6998479D
:102A40000028F1D02B699847EEE7FFF7F9FBC8B9EA
:102A5000134B1B781BB93378C0E73378C0E7337862
:102A600003F0FE033370B9E745691D60012323704D
:102A70005DB1AA6101B962B60025457783689847C0
:102A80002570B7E700F0E8F8E2E7064B1D60F1E7D4
:102A90008409FF1F0962FF1F0462FF1F0862FF1FF6
:102AA0002A0AFF1F0062FF1F2462FF1F0C62FF1F24
:102AB00030B42948294A2A4B2A4D6024E121047068
:102AC00011701B78284C082B30D00A2B2748284936
:102AD00037D00C2B0CBF35225D2212232A602360D5
:102AE00002600B60234B24491B78244ABBB10123AD
:102AF0000B601360224B23491B78234A012B26D9F4
:102B0000042B0FD9082B1ED9102B94BF86238723A3
:102B10000B6013601D4B01221A7030BC70470B60B4
:102B20001360E7E784230B601360F3E700F58E2062
:102B30000F490830212213232A60236002600B60B2
:102B4000D0E73922F7E785230B601360E2E78023A3
:102B50000B601360DEE700BF004007400140074004
:102B60008509FF1F08B003400CB0034008B00B40BC
:102B70000CB00B400B62FF1F20B0034020B00B4095
:102B80008609FF1F24B0034024B00B400A62FF1FD8
:102B9000F0B44D1E2E46002400E00134B0FBF2F3E9
:102BA00002FB1300092800F130078ABF3730F8B262
:102BB000C0B206F8010F1846002BEED10A19537067
:102BC0004CB1107815F8016F28700133E01A834278
:102BD00002F80169F5DB0846F0BC704772B6184A86
:102BE000184B19491160702280211A701A46197009
:102BF00013781B06FCD510B5144B84B0186862B668
:102C0000134B144C984298BF00EB800001A998BF69
:102C100040000A22FFF7BCFF01A92046002311F85B
:102C2000012B01333AB10A2B20F8022FF7D11623DA
:102C3000237004B010BD5B00DBB2237004B010BD84
:102C40000400024000000240000007410C00024066
:102C50007F969800140AFF1F704700BFFFFFFFFF19
:102C600000B551EC100B2C4A21F00043934285B083
:102C700020DD2A4A934209DD10EE102A0B4602F0AD
:102C800039F841EC100B05B05DF804FB684600F024
:102C90001BFC00F00300012828D0022815D060B3E7
:102CA00001209DED021B9DED000B01F059FC51EC44
:102CB000100BE6E79FED161B00F0FEFE51EC100B2B
:102CC00041EC100B05B05DF804FB9DED021B9DED82
:102CD000000B00F0F1FE53EC102B10EE100A03F184
:102CE000004141EC100B05B05DF804FB9DED021BAB
:102CF0009DED000B01F034FCEDE79DED021B9DED19
:102D0000000B00F0D9FE51EC100BBAE7AFF30080D6
:102D10000000000000000000FB21E93FFFFFEF7F03
:102D200000B551EC100B2C4A21F00043934285B0C2
:102D300027DD2A4A934209DD10EE102A0B4601F0E6
:102D4000D9FF41EC100B05B05DF804FB684600F0BC
:102D5000BBFB00F00300012827D002281DD068B378
:102D60009DED021B9DED000B00F0A6FE53EC102B19
:102D700010EE100A03F1004141EC100B05B05DF8B4
:102D800004FB00209FED121B01F0EAFB51EC100B3D
:102D900041EC100B05B05DF804FB01209DED021B1A
:102DA0009DED000B01F0DCFBE0E79DED021B9DEDCE
:102DB000000B00F081FE51EC100BC2E701209DEDED
:102DC000021B9DED000B01F0CBFB51EC100BB8E7A3
:102DD0000000000000000000FB21E93FFFFFEF7F43
:102DE00000F0E6B8FFFFFFFFF0B52DED048BB0EE6D
:102DF000409AF0EE609A3A4C8BB000F0D1F994F919
:102E00000030B0EE408AF0EE608A013338D0B0EE88
:102E1000490AF0EE690A01F033FE88B32CA3D3E926
:102E2000002351EC190B02F0A9FB054680BB2AA335
:102E3000D3E9002351EC190B02F082FB00B394F9A3
:102E40000030284A0895002600270421022B8DED2A
:102E5000049B8DED029BCDE906678DE8060030D01E
:102E6000684601F0A5FE60B3089B1BB102F0F4FBBD
:102E7000089B03609DED060B0BB0BDEC048BF0BD11
:102E8000B0EE480AF0EE680A0BB0BDEC048BF0BD62
:102E9000144A94F900300192032100228DED049B25
:102EA0008DED029B009108922BB90F4B4FF06042C1
:102EB000CDE90623D4E70D490020022BCDE9060118
:102EC000CED102F0C9FB22230360CDE7AFF300802F
:102ED000EF39FAFE422E864051302DD5104987C079
:102EE0002B0AFF1FF4620000FFFFEF470000F07F96
:102EF0002DE9F0432DED028B8BB055EC104B00F01B
:102F000009FD294BB0EE408AF0EE608A93F900602B
:102F1000731C12D022462B462046294602F038FB6D
:102F2000074650B94FF000084FF0000920462946E7
:102F300042464B4602F004FB40B9B0EE480AF0EEC0
:102F4000680A0BB0BDEC028BBDE8F083174B089705
:102F50000122CDE90445CDE902458DE80C00B6B16A
:102F600042464B464046494602F0A2F9022ECDE9C0
:102F700006010ED102F070FB21230360089B73B998
:102F80009DED060B0BB0BDEC028BBDE8F083CDE9E7
:102F90000689684601F00CFE0028EFD1EAE702F04E
:102FA0005BFB089B0360EBE72B0AFF1FF862000046
:102FB00051EC110B43422DE9F047034321F0004847
:102FC000754F48EAD373BB4255EC104B49D8634266
:102FD000234325F0004A4AEAD373BB42A94640D8AE
:102FE00001F1404303F5801303438E4650D08E1702
:102FF00006F0020654EA0A0346EAD57639D050EACA
:1030000008033ED0B84555D0BA453AD0C8EB0A08B7
:103010004FEA2858B8F13C0F40DC002970DB02462B
:103020000B462046294602F043F941EC100B01F013
:103030001FFD01F061FB51EC100B012E5AD0022E46
:1030400048D0002E42D03EA3D3E9002301F052FE27
:103050003DA3D3E9002301F04DFE41EC100BBDE888
:10306000F08722462B4601F047FE41EC100BBDE8ED
:10307000F087022E16D0032E0ED19FED350BBDE842
:10308000F087B9F1000F11DB9FED330BBDE8F0873E
:10309000BDE8F04701F030BBBDE8F0872EA1D1E9D3
:1030A0000001CAE79FED280BBDE8F0879FED2C0BD0
:1030B000BDE8F087C24529D0022EF3D0032EDCD024
:1030C000012E2DD09FED280BBDE8F08741EC100BB1
:1030D000BDE8F0871AA3D3E9002301F00BFE0246F6
:1030E0000B4619A1D1E9000101F004FE41EC100BDF
:1030F000BDE8F08701F1004141EC100BBDE8F0871D
:1031000018F13C0F8BDA0020002196E7022E13D035
:10311000032E0DD0012E07D09FED150BBDE8F087D3
:103120009FED150BBDE8F0879FED150BBDE8F0870F
:103130009FED150BBDE8F0879FED150BBDE8F087FF
:10314000075C143326A6A13C182D4454FB210940EA
:10315000182D4454FB2109C0182D4454FB21F93F7C
:10316000182D4454FB21F9BF0000000000000000AE
:10317000182D4454FB21E93F0000000000000080AE
:10318000182D4454FB21E9BFD221337F7CD902C0E2
:10319000D221337F7CD902400000F07FFFFFFFFF88
:1031A0002DE9F04F55EC104BBD4925F000428A4205
:1031B00083B04FEAD5770DD9BA498A422AD9C5F3E7
:1031C0001303234340F0FA800FB19FED9D0B03B032
:1031D000BDE8F08FB44B9A4200F2D580B34B9A42CF
:1031E00000F2EA8098A3D3E9002310EE100A2946E2
:1031F00001F082FD0022AE4B02F0C0F9002800F081
:103200001C81204629460022A94B01F075FD41ECA6
:10321000100BDCE78EA3D3E9002310EE100A294639
:1032200002F0ACF9002840F0D3808BA3D3E900234F
:103230002046294602F084F90028C6D19D4E88A375
:10324000D3E9002306EBC7062046294601F006FF16
:10325000D6E9002301F050FD02F0B0F9064601F076
:1032600097FE81A3D3E900238046894601F0F6FE4C
:1032700002460B462046294601F03CFD7CA3D3E9DB
:103280000023CDE900014046494601F0E7FE8246B1
:103290008B4652465B46DDE9000101F02BFD0446FA
:1032A0000D4622462B462046294601F0D7FE72A342
:1032B000D3E900238046894601F0D0FE70A3D3E90C
:1032C000002301F017FD42464B4601F0C7FE6EA3F6
:1032D000D3E9002301F010FD42464B4601F0BEFE4B
:1032E0006BA3D3E9002301F005FD42464B4601F0F4
:1032F000B5FE69A3D3E9002301F0FEFC42464B462C
:1033000001F0ACFE02460B462046294601F0F2FCD5
:1033100080468946002E65D02046294642464B46C7
:1033200001F09CFE424604460D464B4600204FF0FD
:10333000804101F0DFFC02460B462046294601F0A1
:10334000B7FF02460B465046594601F0D3FCDDE973
:10335000002301F0CFFC0B4602465549002001F046
:10336000C9FC6FF47F739E4260DA06F57A7601EB52
:10337000065100224FF0B87301F070FE41EC100BC3
:1033800003B0BDE8F08F4C4B9A423FF657AF4B4B22
:103390004FEAC7084344D3E9002310EE100A294638
:1033A00001F0A8FC464BC7F101069844CDE90001A5
:1033B000D8E900ABF61B6CE7002672E710EE102A86
:1033C0002B462046294601F097FC41EC100BFEE607
:1033D0001DA3D3E900231046194601F03FFE41EC3E
:1033E000100BF4E602460B462046294601F036FE55
:1033F000002206460F464FF080434046494601F002
:1034000079FC02460B463046394601F051FF224610
:103410002B4601F06FFC02460B460020244901F0C8
:1034200069FC41EC100B03B0BDE8F08F01EB0651D5
:1034300041EC100B03B0BDE8F08F064631E700BF4A
:1034400000000000000000009C7500883CE4377E0E
:10345000EF39FAFE422E864051302DD5104987C0F3
:10346000FE822B654715F73F0000E0FE422EE63F47
:10347000763C7935EF39EA3DD0A4BE726937663EB5
:10348000F16BD2C541BDBB3E2CDE25AF6A56113F64
:1034900093BDBE166CC1663F3E5555555555C53F4B
:1034A000412E8640FFFFEF7F422ED63FFFFF2F3E8B
:1034B0000000F03F00630000B1A2F03F2063000075
:1034C00010630000FFFFFFFF2DE9F04F53EC102BBE
:1034D000974923F0004B8B458FB040F38780954987
:1034E0008B451C46824629DC002C194610EE100A3A
:1034F00085A3D3E9002340F3A58101F0FBFB8E4BAC
:103500009B4504460D4600F0878081A3D3E9002344
:1035100001F0F0FB02460B46CAE90023204629468B
:1035200001F0E8FB7AA3D3E9002301F0E3FB0125D6
:10353000CAE9020128460FB0BDE8F08F7F498B45EC
:1035400040F387807E498B455BDC4FEA2B55A5F223
:103550001645ABEB05571046394610EE106A02F0DF
:103560002DF801F015FD8046894642464B4630460F
:103570003946CDE9088901F0BDFB0022714B01F00D
:103580006DFD8946804602F019F801F001FD0646FE
:103590000F4632463B4640464946CDE90A6701F0B0
:1035A000A9FB0022674B01F059FD00220023CDE961
:1035B0000C0101F0BBFF002800F0708100233046B1
:1035C0003946002201F0B2FF002814BF0123022374
:1035D0005D4A0192022100912A46514608A800F056
:1035E000AFFB002CC0F24C81054606E080ED000BDD
:1035F00000250024C0E90245002528460FB0BDE89B
:10360000F08F10EE100A194601F074FB0025CAE98C
:103610000201CAE90001F0E73FA3D3E9002301F06A
:1036200069FB3FA3D3E900230D46044601F062FB8A
:1036300002460B46CAE900232946204601F05AFB00
:1036400037A3D3E9002301F055FB0125CAE90201A4
:10365000D3E701F00DFA57EC106B10EE100A32A30D
:10366000D3E90023394601F0F9FC0022374B01F081
:1036700043FB01F0A3FF054601F08AFC22A3D3E936
:103680000023CDE9040101F0E9FC02460B46304677
:10369000394601F02FFB1EA3D3E90023804689465B
:1036A000DDE9040101F0DAFC1F2DCDE9020151DC56
:1036B000274B6A1E53F822309B454BD002460B46DF
:1036C0004046494601F016FB06460F46CAE9006728
:1036D00032463B464046494601F00CFBDDE90223F9
:1036E00001F008FB002CCAE9020186DA07F1004468
:1036F00001F100436D42CAF80060CAF80440CAF8FC
:103700000800CAF80C3078E700004054FB21F93F6C
:103710003163621A61B4D03D0000601A61B4D03DDB
:103720007370032E8A19A33B83C8C96D305FE43FD1
:10373000FB21E93F7BD90240FB21F93FFB213941C5
:10374000FFFFEF7F00007041B06300000000E03F2A
:1037500030630000DDE902234046494601F0CAFA21
:103760004FEA2B5BC1F30A53C3EB0B0306460F462C
:10377000102BCAE90067ABDD5DA3D3E90023DDE9C7
:10378000040101F06BFC06460F4602460B4640461C
:10379000494601F0AFFACDE9060102460B46404624
:1037A000494601F0A7FA32463B4601F0A3FA52A37C
:1037B000D3E9002306460F46DDE9040101F04EFC83
:1037C00032463B4601F096FA0B46CDE9020102462D
:1037D000DDE9060101F08EFAC1F30A53C3EB0B0BCE
:1037E00006460F46BBF1310FCAE9006776DD45A3F7
:1037F000D3E90023DDE9040101F030FC06460F4661
:1038000002460B46DDE9060101F074FA02460B465A
:1038100080468946DDE9060101F06CFA32463B46F6
:1038200001F068FA39A3D3E9002306460F46DDE923
:10383000040101F013FC32463B4601F05BFACDE98E
:1038400002013BE701F058FA2D4B9B4504460D461B
:1038500026D025A3D3E9002301F04EFA02460B46F9
:10386000CAE900232946204601F044FA1EA3D3E901
:10387000002301F041FA4FF0FF35CAE90201BCE62E
:10388000DAF80420DAF80C3002F1004203F10043C8
:103890004542CAF80420CAF80C30AEE6032397E686
:1038A00013A3D3E9002301F027FA13A3D3E90023DC
:1038B0000D46044601F020FA02460B46CAE90023F1
:1038C0002946204601F016FA0BA3D3E9002301F0A4
:1038D00013FA4FF0FF35CAE902018EE6DDE90689E9
:1038E000F6E600BFAFF300803163621A61B4D03DE9
:1038F0000000601A61B4D03D7370032E8A19A33B97
:10390000FB21F93F0000002E8A19A33BC149202565
:103910009A837B392DE9F041654955EC104B0E46F1
:103920002940B14200F09780002D2B4610EE102A5E
:1039300074DD2F157FD0A7F2FF37C3F31303F90708
:1039400043F4801365D403EBD27100260B447F103F
:103950005200B64616204FF400110EEB01049C42B3
:103960004FEAD2754FEA420203DC1B1B04EB010E47
:103970000E44013805EB43034FEA5101EDD1844673
:1039800020244FF0004109E020D003EBD275013C28
:103990004FEA51012B444FEA420220D09E4501EBF1
:1039A0000C05F1DA002D05EB010C09DBF046954220
:1039B000CEEB030300D9013B521B0844C646E4E7A3
:1039C000BCF1000FF2DB0EF10108F0E795421ED8C2
:1039D000002D05EB010C50DB98460023ECE7134368
:1039E00004D0421C4DD000F001031844400871106F
:1039F000F30701F17F5101F5001148BF40F000408D
:103A000001EB0753024643EC102BBDE8F0817346EF
:103A1000BBE75B0003EBD273520094E725F0004153
:103A2000214328D0ADBB2F46D30A153F5205002BAA
:103A3000FAD0DD0228D4002100E001465B00DC0260
:103A400001F10100F9D5C0F1200422FA04F4234366
:103A50007F1A82406FE710EE102A2B4610EE100AF4
:103A6000294601F0FBFA22462B4601F045F941ECCC
:103A7000100BBDE8F081BDE8F081BCF1000FA2DAC7
:103A8000AAE701362046B2E720244FF0FF3100209C
:103A9000DBE710EE102A2B462046294601F02AF9D2
:103AA00002460B4601F004FC41EC100BBDE8F0812E
:103AB0000000F07FFFFFFFFF2DE9F04F57EC106B88
:103AC0002DED028BB0EE418AF0EE618A27F00049BD
:103AD000B9F1795F83B072DA10EE100A394601F05D
:103AE0006DFD002800F0F68032463B4630463946F0
:103AF00001F0B4FA7CA3D3E9002304460D4601F09B
:103B0000ADFA7BA3D3E9002301F0F6F822462B4659
:103B100001F0A4FA78A3D3E9002301F0EBF82246E0
:103B20002B4601F09BFA76A3D3E9002301F0E4F8D9
:103B300022462B4601F092FA73A3D3E9002301F049
:103B4000D9F822462B4601F089FA71A3D3E9002364
:103B500001F0D2F822462B4601F080FA82468B46CD
:103B60000022714B2046294601F078FA52468046E1
:103B700089465B462046294601F070FA53EC182B23
:103B800004460D463046394601F068FA02460B46B7
:103B90002046294601F0AEF802460B46404649460B
:103BA00001F0A8F802460B460020604901F0A2F897
:103BB00041EC100B03B0BDEC028BBDE8F08F10EEB2
:103BC000102A10EE100A3B46394601F047FA46A388
:103BD000D3E9002304460D4601F040FA44A3D3E99B
:103BE000002301F089F822462B4601F037FA42A360
:103BF000D3E9002301F07EF822462B4601F02EFA8D
:103C00003FA3D3E9002301F077F822462B4601F0C9
:103C100025FA3DA3D3E9002301F06CF822462B4698
:103C200001F01CFA3AA3D3E9002301F065F82B4612
:103C3000224601F013FA3E4B994582468B468FDDB2
:103C40003C4B99453DDC0022A9F500130020374983
:103C50009046994601F04EF8CDE900010022324B22
:103C60002046294601F0FAF942464B4601F042F857
:103C70005246804689465B462046294601F0EEF9C9
:103C800053EC182B04460D463046394601F0E6F950
:103C900002460B462046294601F02CF802460B4608
:103CA0004046494601F026F802460B46DDE9000190
:103CB00001F020F841EC100B03B0BDEC028BBDE825
:103CC000F08F9FED157B4FF000088DED007BDFF846
:103CD0006890C3E79FED120B03B0BDEC028BBDE80B
:103CE000F08F00BFAFF30080D43888BEE9FAA8BDDA
:103CF000C4B1B4BD9EEE213EAD529C804F7E923E3B
:103D00009015CB19A001FA3E7751C1166CC1563FF0
:103D10004C5555555555A53F000000000000E73FA4
:103D2000000000000000F03F0000E03F0000F03F16
:103D30003233D33F0000E93F0000D23FFFFFFFFFD7
:103D40002DE9F04FADF51B7D814CA49E814D54F8BB
:103D5000264007942646D41E85FB0475E417C4EB61
:103D6000A50424EAE4741D460A93631CA3EB8303B1
:103D7000013D02EBC30306932B460B940095651B94
:103D8000F4180390089116D42C44013422AEA59F58
:103D900008E057F8250001F0FBF80135A542E6E8F8
:103DA000020108D0002DF4DA013500200021A542DF
:103DB000E6E80201F6D1079B002BC0F2C283079B05
:103DC000039ADDF800A003F1010B0A9B0DF5E479DD
:103DD000DB00049309EBCB0B02EB0308009B002BE9
:103DE000C0F2928122AB03EBCA05039C0835002682
:103DF000002775E90223F4E8020101F02FF90246D9
:103E00000B463046394600F077FF444506460F46DC
:103E1000EFD1E9E80267D9450AF1010ADED1079935
:103E20000498039C049101F18043023B9B002044D1
:103E30001A1D83460EA8024403440D920C93049A63
:103E40009AA901EBC203002A53E9284529DD0DF5A3
:103E5000E47A0AEBC2080DF1340900223E4B2046F9
:103E6000294601F0FBF801F0A9FB01F091F80022CE
:103E70003A4B06460F4601F0F1F802460B46204643
:103E8000294600F037FF01F099FB78E9022349F851
:103E9000040F3946304600F02FFFD04504460D464A
:103EA000DBD1DDF8189045EC104B484600F084FE5D
:103EB00055EC104B00224FF07F5310EE100A2946AC
:103EC00001F0CCF841EC100B00F0E2FD002251ECC7
:103ED000100B234B01F0C2F802460B462046294640
:103EE00000F008FF0D46044601F068FB804601F033
:103EF0004FF80B4602462946204600F0FBFE4B4693
:103F0000002B06460F4640F3E580049A0EA9013ABD
:103F1000C9F1180351F8225045FA03F101FA03F3ED
:103F20000EA8EB1A40F82230C9F11705884443FA6D
:103F300005F5002D41DD049B002B08F1010840F33D
:103F4000C982002214460DA90498AE4612E000BFB3
:103F5000B8640000ABAAAA2A0000703E00007041BD
:103F600000002040C3F180750BB10D6001240132C7
:103F700090420DDD51F8043F002CF3D0C3F1FF1344
:103F8000013203F57F4390420B604FF00104F1DCF6
:103F90007546069B002B0EDD012B00F0A380022B43
:103FA00009D1049B5A1E0EAB0EA953F82230C3F35D
:103FB000150341F82230022D74D000220023304630
:103FC000394601F0B3FA002800F04982049A079BB1
:103FD000501E834210DC02F18043013B0EAA0D9C6F
:103FE00002EB8303002253F80419A34242EA0102C0
:103FF000F9D1002A40F0A480079B0EAA013B52F899
:104000002330002B40F064820C9A012352F80419EB
:1040100001330029FAD0049AD31802F1010A9A4513
:1040200009933CDC0B9B0A9A09990AEB0309049B50
:10403000984690448B1809F18049A59A09F1FF39F7
:1040400002EB890922AA02EBC303049372AB02EBD1
:10405000C80803EBCA0A59F8040F00F099FF009B47
:10406000002BE8E802014FF000064FF0000711DBDB
:10407000039C454675E90223F4E8020100F0EEFFD7
:1040800002460B463046394600F036FE5C45064691
:104090000F46EFD1049B9845EAE80267DBD1099B04
:1040A0000493CCE632463B460020B34900F022FEA2
:1040B00006460F46002C80D006989FEDAB0B00F013
:1040C0007BFD3046394653EC102B00F013FE0646BC
:1040D0000F4672E711D1049B0EAA013B52F8235000
:1040E000ED1526E7049B5A1E0EAB0EA953F822309D
:1040F000C3F3160341F822305DE700229F4B01F025
:1041000033FA58B9054658E700260027E9E8026760
:10411000D9450AF1010A7FF461AE80E6049B002BC9
:1041200008F10108C8BF02253FF70BAF32463B46F6
:104130000020914900F0DEFD022506460F463CE7CF
:104140000EA9CDF8248051F8203006990090183936
:104150000246039506916BB900F18043013B0EA81E
:1041600000EB830353F80409013A18390028F9D009
:104170000092069106989FED7C0B00F01DFD009BC0
:10418000002B55EC104BC0F2C181DA000DF5E4783C
:104190000EA901EB830608EB020B069204360BF125
:1041A000080756F8040D00F0F3FE22462B4600F0F7
:1041B00055FF002267E90201714B2046294600F0B5
:1041C0004DFF474504460D46EBD14AACDDF81C9047
:1041D00004944FF0000AB9F1000FC0F22B81DFF810
:1041E000A4815D4662A3D3E90023002600270024B2
:1041F00003E0A24510DBF8E80223F5E8020100F035
:104200002DFF02460B463046394600F075FD01345D
:10421000A14506460F46ECDA049B03EBCA03ABF15B
:10422000080BC3E9006770AB9B450AF1010AD2D1C4
:10423000A49B049C032B00F28D80DFE813F0DD00CB
:10424000A500A5000400009B002B40F35C81009BAF
:1042500003F1005B069B0BF1FF3BE2184FEACB0337
:10426000D2E9008903F10802103304EB020AE518D1
:104270003AED027B42464B4651EC170B8DED047B29
:1042800000F03AFD06460F4602460B46DDE9040102
:1042900000F030FD4B46424600F02EFD65E902017C
:1042A0004CAB9D42B046B946CAE90067E0D1009BDD
:1042B000012B40F32881069B234493ED007B4FEABA
:1042C000CB0B0BF1100A8DED007BA2440BF1080B18
:1042D00004EB0B05D0460DF59C7BCDF810A075E9DD
:1042E000029ADDE900014A46534600F005FD064604
:1042F0000F4602460B464846514600F0FBFCDDE9FE
:10430000002300F0F9FC68E90201C345CDE900672C
:10431000C5E90067E3D1DDF810A0002000217AE9AB
:10432000022300F0E9FCD345F9D1039B002B00F0F8
:10433000D3806268E368089F2568A4683D6002F145
:10434000004203F1004301F100417A60FB60BC6070
:1043500038617961099B03F007000DF51B7DBDE80D
:10436000F08F00BFAFF30080000000000000F03FBE
:1043700000000040FB21F93F0000F03F0000E03F5B
:104380000000703ED0640000069D083525440020E2
:10439000002175E9022300F0AFFCA542F9D1039B8F
:1043A000002B4AD0089E024601F1004386E80C002B
:1043B0000B460246D4E9000100F09CFC009B002B58
:1043C0000DDD4CAD0124F5E8022300F095FC009BC7
:1043D0000134A342F7DA039B002B00F0A78001F120
:1043E000004308990246C1E90223099B03F0070034
:1043F0000DF51B7DBDE8F08F069B009D0833002066
:1044000000211C4474E90223013D00F075FC6B1C83
:10441000F8D1039B0246002B00F08E8001F100438F
:104420000899C1E90023099B03F007000DF51B7DE6
:10443000BDE8F08F00260027EEE6089B0246C3E9A0
:1044400000010B46D4E9000100F054FC009C002C54
:1044500002460B46B5DC0899C1E90223C5E7069B75
:104460000395584247EC106BCDF8248000F0A4FB74
:1044700055EC104B0022384B10EE100A294601F083
:1044800073F8002834D00022344B2046294600F02F
:10449000E5FD01F093F8064600F07AFD00222E4B70
:1044A00000F0DCFD02460B462046294600F022FCC7
:1044B00001F084F80499069B0A46183301320693EA
:1044C0000B460EA9009241F8230041F8226051E604
:1044D0000123A0E500245CE5D4E90067D4E90223C8
:1044E000089DC5E90401C5E90067C5E9022331E774
:1044F0002946204601F062F8049A00920EA941F87C
:10450000220037E64AAC002000210EE7A49B032BD3
:104510003FF620AF01A252F823F000BF5345000040
:104520004B4500004B450000054500000B4608992F
:104530000246C1E9022358E70B460899C1E9002366
:1045400071E70A9BDB00049369E4002000214AAC78
:1045500025E7002000215CE7000070410000703E6C
:104560002DE9F04F55EC104B2DED028BB0EE418A4A
:10457000F0EE618A25F00043B3F1795F83B08246A3
:1045800007DA10EE100A294601F018F8002800F0AA
:104590008E8022462B462046294600F05FFD0646C7
:1045A0000F4602460B462046294600F057FD47A31A
:1045B000D3E90023804689463046394600F04EFD57
:1045C00044A3D3E9002300F095FB32463B4600F0BC
:1045D00045FD42A3D3E9002300F08EFB32463B4663
:1045E00000F03CFD3FA3D3E9002300F083FB3246FB
:1045F0003B4600F033FD3DA3D3E9002300F07CFBF4
:10460000CDE90001BAF1000F37D000222E4B51EC5A
:10461000180B00F023FDDDE9002382468B4640465F
:10462000494600F01BFD02460B465046594600F035
:1046300061FB32463B4600F011FD53EC182B00F0B5
:1046400059FB1FA3D3E9002306460F4640464946BF
:1046500000F004FD02460B463046394600F04CFBA4
:1046600002460B462046294600F044FB41EC100B65
:1046700003B0BDEC028BBDE8F08F02460B4630461E
:10468000394600F0EBFC0EA3D3E9002300F032FB27
:1046900042464B4600F0E2FC22462B4600F02CFB43
:1046A00041EC100B03B0BDEC028BBDE8F08F45EC84
:1046B000104B03B0BDEC028BBDE8F08FAFF3008070
:1046C000495555555555C53F0000E03F7CD5CF5A5B
:1046D0003AD9E53DEB9C2B8AE6E55A3E7DFEB15783
:1046E000E31DC73ED561C119A0012A3FA6F81011EC
:1046F0001111813FFFFFFFFF2DE9F84F55EC104BE3
:10470000D14B25F000469E42AB4610DDCF4B9E427A
:1047100000F3B28000F0AD80BBF1000F40F3FD80EC
:10472000ADA5D5E9004545EC104BBDE8F88FC84B69
:104730009E4200F3C080A3F1DE739E4240F3A88046
:104740004FF0FF3A22462B462046294600F086FCD1
:1047500002460B468046894600F080FCA0A3D3E9C0
:10476000002306460F4600F079FC9FA3D3E90023FF
:1047700000F0C2FA32463B4600F070FC9CA3D3E93D
:10478000002300F0B9FA32463B4600F067FC9AA3DA
:10479000D3E9002300F0B0FA32463B4600F05EFC5D
:1047A00097A3D3E9002300F0A7FA32463B4600F076
:1047B00055FC95A3D3E9002300F09EFA42464B46F0
:1047C00000F04CFC92A3D3E9002380468946304692
:1047D000394600F043FC90A3D3E9002300F08AFAA5
:1047E00032463B4600F03AFC8DA3D3E9002300F0AB
:1047F00081FA32463B4600F031FC8BA3D3E900231B
:1048000000F078FA32463B4600F028FC88A3D3E952
:10481000002300F06FFA32463B4600F01FFCBAF16D
:10482000FF3F02460B467CD04046494600F064FA02
:1048300022462B4600F012FC864E874B4FEACA0AEE
:1048400056449A44DAE9002300F054FA22462B46F3
:1048500000F050FA02460B46D6E9000100F04AFA91
:10486000BBF1000F52DB04460D4645EC104BBDE892
:10487000F88F002C3FF450AF22462B4620462946A5
:1048800000F03AFA04460D4645EC104BBDE8F88FAF
:1048900069A3D3E9002310EE100A294600F02CFA90
:1048A00000226E4B00F06AFE00283FF449AF45EC51
:1048B000104BBDE8F88F00F0DBF8694B9E4255ECD9
:1048C000104B3FDCA3F550239E4268DC10EE102A0B
:1048D00010EE100A2B46294600F00EFA00225F4B1C
:1048E00000F008FA002206460F464FF080432046AB
:1048F000294600F001FA02460B463046394600F0E0
:10490000D7FC4FF0000A04460D461BE7044601F1B0
:10491000004545EC104BBDE8F88F49A5D5E90045A9
:10492000B2E74046494600F0E7F922462B4600F040
:1049300095FB02460B462046294600F0DBF904466B
:104940000D46A1E7474B9E421DDC10EE100A0022E7
:10495000454B294600F0CEF9002206460F46424B51
:104960002046294600F07AFB00223C4B00F0C4F9B7
:1049700002460B463046394600F09AFC4FF0020AD8
:1049800004460D46DEE62B4610EE102A002037497D
:1049900000F08EFC4FF0030A04460D46D2E610EEFE
:1049A000100A00222D4B294600F0A4F900220646E9
:1049B0000F462A4B2046294600F09EF902460B4638
:1049C0003046394600F074FC4FF0010A04460D46AB
:1049D000B8E600BFAFF30080182D4454FB21F93F27
:1049E00011DA22E33AAD903FEB0D76244B7BA93FE1
:1049F000513DD0A0660DB13F6E204CC5CD45B73FAF
:104A0000FF8300922449C23F0D5555555555D53F5A
:104A10002F6C6A2C44B4A2BF9AFDDE522DDEAD3F4E
:104A20006D9A74AFF2B0B33F711623FEC671BC3FEE
:104A3000C4EB98999999C93F9C7500883CE4377EEE
:104A4000182D4454FB21F9BFFFFF0F440000F07FF5
:104A5000FFFFDB3F28650000086500000000F03F15
:104A6000FFFFF23FFF7F03400000F83F0000F0BF70
:104A700053EC102B23F0004343EC102B704700BF86
:104A800010EE903A43F0004000F58010C00F7047E0
:104A900051EC100BC1F30A532DE9F041A3F2FF359D
:104AA000132D0C460F4610EE106A1DDC002D43DB63
:104AB0003D4B43FA05F801EA0803034319D038A334
:104AC000D3E9002300F018F90022002300F056FD7E
:104AD00020B1002C49DB27EA080400262346324691
:104AE00043EC102BBDE8F081332D06DDB5F5806F6A
:104AF00032D041EC100BBDE8F081A3F213434FF02C
:104B0000FF3828FA03F810EA080FF2D024A3D3E9FB
:104B1000002300F0F1F80022002300F02FFD002810
:104B2000DCD0002C27DB3C4626EA0806234632462A
:104B300043EC102BBDE8F08119A3D3E9002300F06A
:104B4000DBF80022002300F019FD0028C6D0002C5D
:104B50001CDB00263446C1E710EE102A0B4600F09D
:104B6000CBF841EC100BBDE8F0814FF4801343FA11
:104B700005F52F44AFE7142D10D00123C5F13405FE
:104B800003FA05F5AE1928BFFF18CCE724F0004260
:104B9000064B324318BF1C4600269FE70137C2E789
:104BA0009C7500883CE4377EFFFF0F000000F0BFDB
:104BB00000207047FFFFFFFF53EC102B70B5C3F3CD
:104BC0000A541946054614BB23F0004111432AD06C
:104BD00019460022384B394E10EE100A00F03EFA0A
:104BE000B54202460B461FDBC1F30A54363C2C4447
:104BF00040F2FE7084421FDC002C2DDD21F0FF41CD
:104C000021F4E00141EA045343EC102B70BD40F263
:104C1000FF708442EBD110EE100A194600F06CF8D8
:104C200041EC100B70BD70BD1FA3D3E9002300F051
:104C300015FA41EC100B70BD43EC112B9FED1C0BD2
:104C400000F040F81AA3D3E9002351EC100B00F058
:104C500005FA41EC100B70BD14F1350F13DA4CF26C
:104C600050318D4243EC112BE8DC9FED0F0B00F02F
:104C700029F80DA3D3E9002351EC100B00F0EEF955
:104C800041EC100B70BD21F0FF4121F4E0013634FE
:104C900041EA0453104619460022094B00F0DEF9A0
:104CA00041EC100B70BD00BF59F3F8C21F6EA50197
:104CB0009C7500883CE4377E00005043B03CFFFF09
:104CC0000000903C53EC102B11EE900A23F00041B1
:104CD00000F0004041EA000343EC102B704700BF96
:104CE0000B460146184600F0B1BC00BF81F0004100
:104CF00002E000BF83F0004330B54FEA41044FEAC1
:104D0000430594EA050F08BF90EA020F1FBF54EA5B
:104D1000000C55EA020C7FEA645C7FEA655C00F0F7
:104D2000E2804FEA5454D4EB5555B8BF6D420CDDC8
:104D30002C4480EA020281EA030382EA000083EA4B
:104D4000010180EA020281EA0303362D88BF30BDEB
:104D500011F0004F4FEA01314FF4801C4CEA113141
:104D600002D0404261EB410113F0004F4FEA0333A0
:104D70004CEA133302D0524263EB430394EA050F2B
:104D800000F0A780A4F10104D5F1200E0DDB02FA9A
:104D90000EFC22FA05F2801841F1000103FA0EF22E
:104DA000801843FA05F359410EE0A5F120050EF1F4
:104DB000200E012A03FA0EFC28BF4CF0020C43FA25
:104DC00005F3C01851EBE37101F0004507D54FF032
:104DD000000EDCF1000C7EEB00006EEB0101B1F582
:104DE000801F1BD3B1F5001F0CD349085FEA3000C8
:104DF0004FEA3C0C04F101044FEA445212F5800FD3
:104E000080F09A80BCF1004F08BF5FEA500C50F16F
:104E1000000041EB045141EA050130BD5FEA4C0C52
:104E2000404141EB010111F4801FA4F10104E9D1DB
:104E300091F0000F04BF01460020B1FA81F308BFD2
:104E40002033A3F10B03B3F120020CDA0C3208DD9E
:104E500002F1140CC2F10C0201FA0CF021FA02F179
:104E60000CE002F11402D8BFC2F1200C01FA02F1E9
:104E700020FA0CFCDCBF41EA0C019040E41AA2BF0E
:104E800001EB0451294330BD6FEA04041F3C1CDAD6
:104E90000C340EDC04F11404C4F1200220FA04F0F6
:104EA00001FA02F340EA030021FA04F345EA0301A0
:104EB00030BDC4F10C04C4F1200220FA02F001FA62
:104EC00004F340EA0300294630BD21FA04F02946E4
:104ED00030BD94F0000F83F4801306BF81F480117D
:104EE0000134013D4EE77FEA645C18BF7FEA655CF0
:104EF00029D094EA050F08BF90EA020F05D054EAC2
:104F0000000C04BF1946104630BD91EA030F1EBFC6
:104F10000021002030BD5FEA545C05D140004941CA
:104F200028BF41F0004130BD14F580043CBF01F5BD
:104F3000801130BD01F0004545F0FE4141F47001A3
:104F40004FF0000030BD7FEA645C1ABF194610467E
:104F50007FEA655C1CBF0B46024650EA013406BF7F
:104F600052EA033591EA030F41F4002130BD00BF3E
:104F700090F0000F04BF0021704730B54FF48064FB
:104F800004F132044FF000054FF0000150E700BF7C
:104F900090F0000F04BF0021704730B54FF48064DB
:104FA00004F1320410F0004548BF40424FF00001C8
:104FB0003EE700BF42004FEAE2014FEA31014FEA0B
:104FC00002701FBF12F07F4393F07F4F81F060515A
:104FD000704792F0000F14BF93F07F4F704730B5C9
:104FE0004FF4607401F0004521F0004120E700BF5C
:104FF00050EA010208BF704730B54FF000050AE0E3
:1050000050EA010208BF704730B511F0004502D5E3
:10501000404261EB41014FF4806404F132045FEAE5
:10502000915C3FF4DCAE4FF003025FEADC0C18BF8A
:1050300003325FEADC0C18BF033202EBDC02C2F180
:10504000200300FA03FC20FA02F001FA03FE40EA12
:105050000E0021FA02F11444C1E600BF70B54FF012
:10506000FF0C4CF4E06C1CEA11541DBF1CEA1355F4
:1050700094EA0C0F95EA0C0F00F0DEF82C4481EA5C
:10508000030621EA4C5123EA4C5350EA013518BF7C
:1050900052EA033541F4801143F4801338D0A0FB69
:1050A00002CE4FF00005E1FB02E506F00042E0FB16
:1050B00003E54FF00006E1FB03569CF0000F18BF1C
:1050C0004EF0010EA4F1FF04B6F5007F64F54074C4
:1050D00004D25FEA4E0E6D4146EB060642EAC62157
:1050E00041EA55514FEAC52040EA5E504FEACE2EC4
:1050F000B4F1FD0C88BFBCF5E06F1ED8BEF1004FC7
:1051000008BF5FEA500E50F1000041EB045170BD42
:1051100006F0004646EA010140EA020081EA030186
:10512000B4EB5C04C2BFD4EB0C0541EA045170BD82
:1051300041F480114FF0000E013C00F3AB8014F1FC
:10514000360FDEBF002001F0004170BDC4F1000445
:10515000203C35DA0C341BDC04F11404C4F12005C6
:1051600000FA05F320FA04F001FA05F240EA020021
:1051700001F0004221F0004110EBD37021FA04F657
:1051800042EB06015EEA430E08BF20EAD37070BD11
:10519000C4F10C04C4F1200500FA04F320FA05F070
:1051A00001FA04F240EA020001F0004110EBD37072
:1051B00041F100015EEA430E08BF20EAD37070BDE2
:1051C000C4F1200500FA05F24EEA020E20FA04F3BB
:1051D00001FA05F243EA020321FA04F001F000416A
:1051E00021FA04F220EA020000EBD3705EEA430EDB
:1051F00008BF20EAD37070BD94F0000F0FD101F00A
:105200000046400041EB010111F4801F08BF013C42
:10521000F7D041EA060195F0000F18BF704703F080
:105220000046520043EB030313F4801F08BF013D07
:10523000F7D043EA0603704794EA0C0F0CEA1355C3
:1052400018BF95EA0C0F0CD050EA410618BF52EA7D
:105250004306D1D181EA030101F000414FF0000083
:1052600070BD50EA410606BF1046194652EA430691
:1052700019D094EA0C0F02D150EA013613D195EA05
:105280000C0F05D152EA03361CBF104619460AD14D
:1052900081EA030101F0004141F0FE4141F4700157
:1052A0004FF0000070BD41F0FE4141F4780170BD47
:1052B00070B54FF0FF0C4CF4E06C1CEA11541DBFAC
:1052C0001CEA135594EA0C0F95EA0C0F00F0A7F8AE
:1052D000A4EB050481EA030E52EA03354FEA0131DB
:1052E00000F088804FEA03334FF0805545EA1313EE
:1052F00043EA12634FEA022245EA111545EA1065B6
:105300004FEA00260EF000419D4208BF964244F14C
:10531000FD0404F5407402D25B084FEA3202B61A6B
:1053200065EB03055B084FEA32024FF480104FF43F
:10533000002CB6EB020E75EB030E22BFB61A7546B3
:1053400040EA0C005B084FEA3202B6EB020E75EB46
:10535000030E22BFB61A754640EA5C005B084FEAAE
:105360003202B6EB020E75EB030E22BFB61A75467B
:1053700040EA9C005B084FEA3202B6EB020E75EB86
:10538000030E22BFB61A754640EADC0055EA060E47
:1053900018D04FEA051545EA16754FEA06164FEA8A
:1053A000C30343EA52734FEAC2025FEA1C1CC0D136
:1053B00011F4801F0BD141EA00014FF000004FF0C3
:1053C000004CB6E711F4801F04BF01430020B4F184
:1053D000FD0C88BFBCF5E06F3FF6AFAEB5EB030C3C
:1053E00004BFB6EB020C5FEA500C50F1000041EB39
:1053F000045170BD0EF0004E4EEA113114EB5C0406
:10540000C2BFD4EB0C0541EA045170BD41F48011D8
:105410004FF0000E013C90E645EA060E8DE60CEAE0
:10542000135594EA0C0F08BF95EA0C0F3FF43BAFFD
:1054300094EA0C0F0AD150EA01347FF434AF95EAB4
:105440000C0F7FF425AF104619462CE795EA0C0F98
:1054500006D152EA03353FF4FDAE1046194622E765
:1054600050EA410618BF52EA43067FF4C5AE50EA3F
:1054700041047FF40DAF52EA43057FF4EBAE12E72F
:105480004FF0FF3C06E000BF4FF0010C02E000BF10
:105490004FF0010C4DF804CD4FEA410C7FEA6C5CF3
:1054A0004FEA430C18BF7FEA6C5C1BD001B050EA96
:1054B000410C0CBF52EA430C91EA030F02BF90EA81
:1054C000020F0020704710F1000F91EA030F58BF40
:1054D000994208BF90422CBFD8176FEAE37040F0A2
:1054E000010070474FEA410C7FEA6C5C02D150EA40
:1054F000013C07D14FEA430C7FEA6C5CD6D152EAFB
:10550000033CD3D05DF8040B704700BF84461046BF
:1055100062468C461946634600E000BF01B5FFF7BE
:10552000B7FF002848BF10F1000F01BD4DF808ED8E
:10553000FFF7F4FF0CBF012000205DF808FB00BF5F
:105540004DF808EDFFF7EAFF34BF012000205DF8B9
:1055500008FB00BF4DF808EDFFF7E0FF94BF012006
:1055600000205DF808FB00BF4DF808EDFFF7CEFF07
:1055700094BF012000205DF808FB00BF4DF808ED46
:10558000FFF7C4FF34BF012000205DF808FB00BF17
:105590004FEA410C7FEA6C5C02D150EA013C0AD12F
:1055A0004FEA430C7FEA6C5C02D152EA033C02D121
:1055B0004FF0000070474FF0010070474FEA410282
:1055C00012F5001215D211D56FF47873B3EB625255
:1055D00012D94FEAC12343F0004343EA505311F07C
:1055E000004F23FA02F018BF404270474FF000000E
:1055F000704750EA013005D111F0004008BF6FF04C
:10560000004070474FF00000704700BF4A0011D2C1
:1056100012F5001211D20DD56FF47873B3EB62520C
:105620000ED44FEAC12343F0004343EA505323FA18
:1056300002F070474FF00000704750EA013002D18D
:105640004FF0FF3070474FF00000704713460A4696
:105650000146022000F004BB014B1868704700BFF0
:10566000580EFF1F70B50F4E0F4D761BB61018BFAA
:10567000002405D0013455F8043B9847A642F9D1DF
:105680000A4E0B4D761B00F061FFB61018BF0024C8
:1056900006D0013455F8043B9847A642F9D170BDB5
:1056A00070BD00BF586500005865000064650000CB
:1056B00058650000024B0146186800F003B800BFAF
:1056C000580EFF1F2DE9F04F01F10B05162D83B089
:1056D000064640F29F8035F0070500F1BF80A942E1
:1056E00000F2BC8000F0A6FAB5F5FC7FC0F09C8209
:1056F0006B0A00F0BA80042B00F28381A80900F144
:10570000390E4FEA4E033830C44F07EB8303A3F141
:1057100008015C68A14207D1ACE0002A80F2AC80AD
:10572000E468A14200F0A680636823F003035A1BDB
:105730000F2AF2DDB9493C6901F1080E744500F009
:10574000B381636823F003035A1B0F2A00F3998186
:10575000002AC1F814E0C1F810E080F29E80B3F591
:10576000007F80F06781DB0803F1010C01229B10B0
:1057700002FA03F34A6851F83C80C4F8088001EB50
:10578000CC091A43A9F10803E3604A6041F83C40A0
:10579000C8F80C40831001249C40944200F28A8097
:1057A000144206D120F003006400144200F104000A
:1057B000FAD007EBC009CC468046DCF80C108C45CB
:1057C00007D173E1002A80F28181C9688C4500F01D
:1057D0006D814B6823F003035A1B0F2AF2DD0C4640
:1057E000D1F80CC054F8088F4B1945F001054D60F5
:1057F00042F00101C8F80CC03046CCF808807B614B
:105800003B61C3F80CE0C3F808E059609A5000F01F
:1058100013FA1FE0102921D800F00CFA10250623F6
:1058200002207E4F07EB8303A3F108025C689442D9
:1058300000F045816368E168A56823F00303234411
:1058400030465A68E96042F001028D605A6000F00B
:10585000F3F90834204603B0BDE8F08F00240C2390
:105860002046336003B0BDE8F08F80234FF0400E38
:105870003F2049E770465DE72344E1685A68A56820
:1058800042F00102E96030468D605A6000F0D4F9C0
:105890000834204603B0BDE8F08F234430465A68F0
:1058A00042F001025A6000F0C7F90834204603B004
:1058B000BDE8F08FBC68636823F00308A84504D3F3
:1058C000C5EB08030F2B00F38C80554BDFF860917C
:1058D0001A68D9F8003001332A4404EB080A00F0B2
:1058E000608102F580520F3222F47F6222F00F02B3
:1058F00011463046019200F0A1F9B0F1FF3F834616
:10590000019A00F05881824500F2FC80454B1968ED
:10591000DA451144196000F05381D9F80000DFF82E
:1059200010E101301BBFCAEB0B0A5144CEF800B0A6
:1059300019601BF0070100F01781C1F10800C1F5E3
:105940008051834408315A44C2F30B02C2EB01096F
:1059500049463046019300F071F9431C019B00F069
:105960003F81CBEB00024A4442F001021968C7F8BC
:1059700008B04944BC42CBF804201960DFF8A49079
:1059800016D0B8F10F0F40F2FD806268A8F10C0349
:1059900023F00703E01802F001024FF0050E1A434E
:1059A0000F2B6260C0F804E0C0F808E000F21C8130
:1059B0001D4BBC681A68914288BF19601B4B1A685E
:1059C0009142626888BF196022F003029542A2EBFF
:1059D000050301D80F2B04DC304600F02DF900241C
:1059E00038E7621943F0010345F001056560304670
:1059F000BA60536000F020F90834204603B0BDE8D7
:105A0000F08F142B71D9542B00F2A480280B00F1D5
:105A10006F0E4FEA4E036E3076E600BF5C0EFF1F3E
:105A20003062FF1F3462FF1F2C62FF1F2862FF1FBE
:105A30006812FF1F5A0A042A5ED9142A00F2B380A2
:105A400002F15C0149005B3207EB810C57F8211031
:105A5000DFF8DC81ACF1080C8C4500F088804A68E6
:105A600022F00302934202D289688C45F7D1D1F823
:105A70000CC07A68C4F80CC0A160CCF80840CC60B7
:105A800088E6631942F0010745F00105656030467C
:105A90004B610B61C3F80CE0C3F808E05F609A50FB
:105AA000083400F0C9F8D5E64A6873E608F1010841
:105AB00018F0030F0CF1080C7FF47FAE30E0DC68C7
:105AC000A34208BF02303FF435AEB3E60B440C46A8
:105AD0005A68C96854F8085F42F001025A603046BB
